:020000040800F2
:100000000000012021F7000869F7000869F70008DF
:1000100069F7000869F7000869F7000800000000A8
:1000200000000000000000000000000069F7000868
:1000300069F700080000000069F7000877DD000894
:1000400069F7000869F7000869F7000869F7000810
:1000500069F7000869F7000865DE00086BDE000834
:1000600071DE000877DE00087DDE000869F7000811
:1000700069F7000869F7000869F7000869F70008E0
:1000800069F7000869F7000869F7000869F70008D0
:1000900069F7000869F7000869F7000883DE0008BF
:1000A00069F7000819D8000869F700082DD800087A
:1000B00031D8000845D8000859D80008F1A4000834
:1000C000FDA4000809A5000815A5000869F70008A7
:1000D00069F7000801EC000819EC000835EC00088D
:1000E00099DE000869F7000869F7000869F7000859
:1000F000A9D8000869F70008BDD8000869F700080A
:1001000069F7000869F700086DD8000869F700086A
:1001100051EC000869EC000881D8000895D8000867
:1001200069F7000869F7000869F7000869F700082F
:1001300000000000000000000000000000000000BF
:1001400000000000000000000000000000000000AF
:10015000000000000000000000000000000000009F
:10016000000000000000000000000000000000008F
:10017000000000000000000000000000000000007F
:10018000000000000000000000000000000000006F
:10019000000000000000000000000000000000005F
:1001A000000000000000000000000000000000004F
:1001B000000000000000000000000000000000003F
:1001C000000000000000000000000000000000002F
:1001D000000000000000000000000000000000001F
:0401E0005FF8E0F1F3
:1001E400034613F8012B002AFBD1181A0138704773
:1001F40080F0004002E000BF81F0004142001FBFD8
:100204005FEA410392EA030F7FEA226C7FEA236CE0
:100214006AD04FEA1262D2EB1363C1BFD2184140D5
:1002240048404140B8BF5B42192B88BF704710F06B
:10023400004F40F4000020F07F4018BF404211F00E
:10024400004F41F4000121F07F4118BF494292EA76
:10025400030F3FD0A2F1010241FA03FC10EB0C00A2
:10026400C3F1200301FA03F100F0004302D549422F
:1002740060EB4000B0F5000F13D3B0F1807F06D3DC
:1002840040084FEA310102F10102FE2A51D2B1F1D4
:10029400004F40EBC25008BF20F0010040EA0300C9
:1002A4007047490040EB0000013A28BFB0F5000F49
:1002B400EDD2B0FA80FCACF1080CB2EB0C0200FAFF
:1002C4000CF0AABF00EBC25052421843BCBFD0404E
:1002D4001843704792F0000F81F4000106BF80F4C8
:1002E40000000132013BB5E74FEA41037FEA226C8B
:1002F40018BF7FEA236C21D092EA030F04D092F056
:10030400000F08BF0846704790EA010F1CBF002089
:10031400704712F07F4F04D1400028BF40F00040E6
:10032400704712F100723CBF00F50000704700F006
:10033400004343F0FE4040F4000070477FEA22622D
:1003440016BF08467FEA23630146420206BF5FEAFE
:10035400412390EA010F40F4800070474FF00003FE
:1003640004E000BF10F0004348BF40425FEA000CC5
:1003740008BF704743F0964301464FF000001CE06D
:1003840050EA010208BF70474FF000030AE000BFC3
:1003940050EA010208BF704711F0004302D5404201
:1003A40061EB41015FEA010C02BF84460146002073
:1003B40043F0B64308BFA3F18053A3F50003BCFA8E
:1003C4008CF2083AA3EBC25310DB01FA02FC63443B
:1003D40000FA02FCC2F12002BCF1004F20FA02F242
:1003E40043EB020008BF20F00100704702F1200235
:1003F40001FA02FCC2F1200250EA4C0021FA02F296
:1004040043EB020008BF20EADC7070474FF0FF3C6A
:1004140006E000BF4FF0010C02E000BF4FF0010CFA
:100424004DF804CD4FEA40024FEA41037FEA226CC3
:1004340018BF7FEA236C11D001B052EA530C18BFE5
:1004440090EA010F58BFB2EB030088BFC81738BF4A
:100454006FEAE17018BF40F0010070477FEA226C38
:1004640002D15FEA402C05D17FEA236CE4D15FEA34
:10047400412CE1D05DF8040B704700BF8446084668
:100484006146FFE70FB5FFF7C9FF002848BF10F129
:10049400000F0FBD4DF808EDFFF7F4FF0CBF01206E
:1004A40000205DF808FB00BF4DF808EDFFF7EAFFF8
:1004B40034BF012000205DF808FB00BF4DF808EDB3
:1004C400FFF7E0FF94BF012000205DF808FB00BFA8
:1004D4004DF808EDFFF7D2FF94BF012000205DF82E
:1004E40008FB00BF4DF808EDFFF7C8FF34BF01203B
:1004F40000205DF808FB00BF4FEA4002B2F1FE4F56
:100504000FD34FF09E03B3EB12620DD94FEA0023D1
:1005140043F0004310F0004F23FA02F018BF4042AA
:1005240070474FF00000704712F1610F01D1420291
:1005340005D110F0004008BF6FF0004070474FF045
:100544000000704710B5054C237833B9044B13B140
:100554000448AFF300800123237010BD94020020EF
:100564000000000094FD000808B5034B1BB10349CB
:100574000348AFF3008008BD00000000980200208B
:1005840094FD000808B50A200FF0F2F901212D208E
:100594000FF07CF90A200FF0EBF9BDE808400021C8
:1005A4002D200FF073B938B505460C4604B938BD93
:1005B400002145200FF06AF914EA050118BF012152
:1005C40044200FF063F9012145200FF05FF964081E
:1005D400ECE7000070B54F200FF092F9003818BF17
:1005E4000120594E594D30704E200FF089F90038D2
:1005F40018BF012028704D200FF082F9003818BF71
:100604000120534C20704C200FF07AF9021E18BFC1
:100614000122504B29781A7033782278002B3ED06F
:100624004D4B99B142B11A68002830D11AB1D92181
:100634004A4A1860118070BD1A6808BB012AFAD0B2
:10064400BA21464A118001221A60F4E7002A5BD1DC
:100654001A6870B9022AEED09B21404A1180022206
:10066400F2E71A68032AE6D07C213C4A118003226F
:10067400EAE7052ADFD03E21384A11800522E3E764
:10068400062AD8D01F21354A11800622DCE7072A22
:10069400D1D007221A600022304B1A80CBE769B10F
:1006A400002A3BD12C4B1A68002843D0082AC2D018
:1006B4004FF6E171294A11800822C5E7264B4AB951
:1006C4001A68C8B1092AB6D04FF6C271234A1180FC
:1006D4000922B9E71A6838B90B2AACD04FF68471ED
:1006E4001E4A11800B22AFE70A2AA4D04FF6A37149
:1006F4001A4A11800A22A7E70C2A9CD04FF665718A
:10070400164A11800C229FE70028AAD01A68042AEE
:1007140091D05D21114A1180042295E700288AD1E5
:100724000D4B1A680E2A86D04FF627710B4A11809A
:100734000E2289E70D2A3FF47EAF4FF64671074A31
:1007440011800D2280E700BF9B0100209A01002048
:100754009901002098010020D004002068050020A1
:1007640038B54A200FF0CCF8094C0A4D23682860AC
:100774004BB9012807D14B200FF0C2F8064B1A6879
:1007840020B9013A1A602B68236038BD0132F9E7B9
:10079400C4040020C0040020C8040020F8B5372594
:1007A4000027074E441E14F8013F03B9F8BD3582F3
:1007B40077822178024805350EF08DFDADB2F2E75F
:1007C400800500202DE9F04FD04CD14E25683368C8
:1007D40089B0AB4201F00887002D40F0FA80012275
:1007E4000921CC480AF004FB02220921C9480AF075
:1007F400FFFA03220921C7480AF0FAFA0422092160
:10080400C4480AF0F5FA05220921C2480AF0F0FAB0
:1008140001220821BF480AF0F2FA02220821BD4849
:100824000AF0EDFA03220821BA480AF0E8FA042291
:100834000821B8480AF0E3FA05220821B5480AF06D
:10084400DEFA01220721B3480AF0D9FA022207216D
:10085400B0480AF0D4FA03220721AE480AF0CFFACE
:1008640004220721AB480AF0CAFA05220721A94845
:100874000AF0C5FA01220621A6480AF0C0FA0222AB
:100884000621A4480AF0BBFA03220621A1480AF073
:10089400B6FA042206219F480AF0B1FA052206217D
:1008A4009C480AF0ACFA012205219A480AF0A7FAFA
:1008B4000222052197480AF0A2FA0322052195484D
:1008C4000AF09DFA0422052192480AF098FA0522BA
:1008D400904811460AF093FA012204218D480AF047
:1008E4008EFA022204218B480AF089FA0322042199
:1008F40088480AF084FA0422864811460AF07FFAEE
:100904000522042183480AF07AFA0122032181484E
:100914000AF075FA022203217E480AF070FA0322D3
:100924007C4811460AF06BFA0422032179480AF044
:1009340066FA0522032177480AF061FA01220221AE
:1009440074480AF05CFA0222724811460AF057FA17
:10095400032202216F480AF052FA042202216D4850
:100964000AF04DFA052202216A480AF048FA0122E7
:10097400684811460AF043FA0222012165480AF048
:100984003EFA0322012163480AF039FA04220121C4
:1009940060480AF034FA052201215E480AF02FFA71
:1009A400012229465B480AF02AFA022229465948BC
:1009B4000AF025FA0322294656480AF020FA0422AE
:1009C400294654480AF01BFA0522294651480AF0E0
:1009D40016FA2568012D40F001812A4609214D4867
:1009E4000AF006FA022209214A480AF001FA03220F
:1009F400092148480AF0FCF90422092145480AF073
:100A0400F7F90522092143480AF0F2F92A46082198
:100A140040480AF0EDF9022208213E480AF0E8F9BC
:100A2400032208213B480AF0E3F90422082139484B
:100A34000AF0DEF90522082136480AF0D9F92A46D7
:100A4400072134480AF0DBF90222072131480AF071
:100A5400D6F9032207212F480AF0D1F904220721ED
:100A64002C480AF0CCF9052207212A480AF0C7F9D4
:100A74002A46062127480AF0C2F9022206212548FF
:100A84000AF0BDF90322062122480AF0B8F904222B
:100A9400062120480AF0B3F9052206211D480AF070
:100AA400AEF92A4605211B480AF0A9F902220521BC
:100AB40018480AF0A4F90322052116480AF09FF900
:100AC4000422052113480AF09AF905221148114617
:100AD4000AF095F92A4604210E480AF090F90222F8
:100AE40004210C480AF08BF90322042109480AF076
:100AF40086F90422074811460AF081F905220421E7
:100B040004480AF07CF92A46032105E0D0040020B9
:100B1400CC04002080050020D2480AF070F902229B
:100B24000321D0480AF06BF90322CE4811460AF09B
:100B340066F904220321CB480AF061F90522032156
:100B4400C8480AF05CF92A460221C6480AF057F957
:100B54000222C44811460AF052F903220221C14874
:100B64000AF04DF904220221BE480AF048F9052290
:100B74000221BC480AF043F92A462946B9480AF03A
:100B84003EF902222946B7480AF039F903222946D8
:100B9400B4480AF034F904222946B2480AF02FF97D
:100BA40005222946AF480AF02AF92A460021AD4811
:100BB4000AF025F902220021AA480AF020F90322AA
:100BC4000021A8480AF01BF904220021A5480AF0D4
:100BD40016F905220021A3480AF011F92568022D0F
:100BE40040F0FA80012209219E480AF008F92A46B9
:100BF40009219C480AF003F90322092199480AF0C3
:100C0400FEF80422092197480AF0F9F8052209217F
:100C140094480AF0F4F80122082192480AF0E8F80E
:100C24002A4608218F480AF0E3F8032208218D4858
:100C34000AF0DEF8042208218A480AF0D9F80522CD
:100C4400082188480AF0D4F80122072185480AF0CF
:100C5400CFF82A46072183480AF0CAF8032207215D
:100C640080480AF0C5F8042207217E480AF0C0F83B
:100C7400052207217B480AF0BBF8012206217948A6
:100C84000AF0BDF82A46062176480AF0B8F803228D
:100C9400062174480AF0B3F80422062171480AF0C8
:100CA400AEF8052206216F480AF0A9F801220521B1
:100CB4006C480AF0A4F82A4605216A480AF09FF80D
:100CC4000322052167480AF09AF8042205216548A1
:100CD4000AF095F80522634811460AF090F80122BB
:100CE400042160480AF08BF82A4604215D480AF082
:100CF40086F8032204215B480AF081F8042259484B
:100D040011460AF07CF80522042156480AF077F8C7
:100D14000122032153480AF072F82A46032151485C
:100D24000AF06DF803224F4811460AF068F80422CD
:100D340003214C480AF063F80522032149480AF0CC
:100D44005EF80122294647480AF059F82A462946FE
:100D540044480AF054F80322294642480AF04FF85E
:100D6400042229463F480AF04AF8052229463D480C
:100D74000AF045F801223B4811460AF040F82A4699
:100D8400012138480AF03BF80322012135480AF0D2
:100D940036F80422012133480AF031F805220121F2
:100DA40030480AF02CF8012200212E480AF027F8D6
:100DB4002A4600212B480AF022F803220021294860
:100DC4000AF01DF80422002126480AF018F805222A
:100DD400002124480AF013F82568032D40F0FD8013
:100DE400012209211F480AF00AF8022209211D489C
:100DF4000AF005F82A4609211A480AF000F80422E4
:100E04000921184809F0FBFF05220921154809F0BA
:100E1400F6FF01220821134809F0F1FF02220821FC
:100E2400104809F0ECFF2A4608210E4809F0E7FFB4
:100E3400042208210B4809F0E2FF05220821094891
:100E440009F0DDFF01220721064809F0D1FF022243
:100E54000721044809F0CCFF2A460721014809F07C
:100E6400C7FF01E08005002004220721D34809F0D0
:100E7400BFFF05220721D14809F0BAFF012206214C
:100E8400CE4809F0BCFF02220621CC4809F0B7FF86
:100E94002A460621C94809F0B2FF04220621C748A0
:100EA40009F0ADFF05220621C44809F0A8FF01227C
:100EB4000521C24809F0A3FF02220521BF4809F019
:100EC4009EFF2A460521BD4809F099FF0422052109
:100ED400BA4809F094FF0522B848114609F08FFF7B
:100EE40001220421B54809F08AFF02220421B348F3
:100EF40009F085FF2A460421B04809F080FF042246
:100F0400AE48114609F07BFF05220421AB4809F0E5
:100F140076FF01222946A94809F071FF02222946D9
:100F2400A64809F06CFF2A462946A44809F067FF41
:100F340004222946A14809F062FF052229469F4858
:100F440009F05DFF012202219C4809F058FF0222AA
:100F54009A48114609F053FF2A460221974809F09E
:100F64004EFF04220221954809F049FF052202217F
:100F7400924809F044FF01229048114609F03FFFCE
:100F8400022201218D4809F03AFF2A4601218B48AB
:100F940009F035FF04220121884809F030FF0522B9
:100FA4000121864809F02BFF01220021834809F022
:100FB40026FF02220021814809F021FF2A46002150
:100FC4007E4809F01CFF042200217C4809F017FF29
:100FD40005220021794809F012FF2568042D40F00C
:100FE400FE8001220921754809F009FF0222092126
:100FF400724809F004FF03220921704809F0FFFE3A
:101004002A4609216D4809F0FAFE052209216B4898
:1010140009F0F5FE01220821684809F0F0FE0222D9
:101024000821664809F0EBFE03220821634809F011
:10103400E6FE2A460821614809F0E1FE052208215E
:101044005E4809F0DCFE012207215C4809F0D0FE6D
:1010540002220721594809F0CBFE032207215748F1
:1010640009F0C6FE2A460721544809F0C1FE0522AC
:101074000721524809F0BCFE012206214F4809F01D
:10108400B7FE022206214D4809F0B2FE03220621D2
:101094004A4809F0ADFE2A460621484809F0A8FE50
:1010A40005220621454809F0A3FE012205214348F3
:1010B40009F0A5FE02220521404809F0A0FE032202
:1010C40005213E4809F09BFE2A4605213B4809F0CC
:1010D40096FE05223948114609F091FE012229465F
:1010E400364809F08CFE02222946344809F087FE6E
:1010F40003222946314809F082FE2A4629462F4810
:1011040009F07DFE052229462C4809F078FE0122CB
:1011140003212A4809F073FE02220321274809F01B
:101124006EFE03222548114609F069FE2A46032172
:10113400224809F064FE05220321204809F05FFEDD
:10114400012202211D4809F05AFE02221B481146C1
:1011540009F055FE03220221184809F050FE2A46E0
:101164000221164809F04BFE05220221134809F01A
:1011740046FE01221148114609F041FE02220121D6
:101184000E4809F03CFE032201210C4809F037FE09
:101194002A460121094809F032FE052201210748A7
:1011A40009F02DFE01220021044809F028FE022244
:1011B4000021024809F023FE02E000BF8005002060
:1011C40003220021D24809F01AFE2A460021D04801
:1011D40009F015FE05220021CD4809F010FE25680E
:1011E400052D40F0FA8001220921C94809F007FEC3
:1011F40002220921C64809F002FE03220921C4483B
:1012040009F0FDFD04220921C14809F0F8FD2A4630
:101214000921BF4809F0F3FD01220821BC4809F067
:10122400EEFD02220821BA4809F0E9FD0322082153
:10123400B74809F0E4FD04220821B54809F0DFFDB0
:101244002A460821B24809F0DAFD01220721B048F4
:1012540009F0D5FD02220721AD4809F0D0FD032293
:101264000721AB4809F0CBFD04220721A84809F067
:10127400C6FD2A460721A64809F0C1FD0122062120
:10128400A34809F0B5FD02220621A14809F0B0FDEA
:10129400032206219E4809F0ABFD042206219C4846
:1012A40009F0A6FD2A460621994809F0A1FD01226C
:1012B4002946974809F09CFD02222946944809F0E2
:1012C40097FD03222946924809F092FD04222946FB
:1012D4008F4809F08DFD2A4629468D4809F088FD7E
:1012E400012204218A4809F08AFD02220421884847
:1012F40009F085FD03220421854809F080FD0422BC
:101304008348114609F07BFD2A460421804809F0F0
:1013140076FD012203217E4809F071FD022203219A
:101324007B4809F06CFD03227948114609F067FDFA
:1013340004220321764809F062FD2A4603217448F9
:1013440009F05DFD01220221714809F058FD0222D5
:101354006F48114609F053FD032202216C4809F03D
:101364004EFD042202216A4809F049FD2A46022161
:10137400674809F044FD01226548114609F03FFD24
:1013840002220121624809F03AFD0322012160484A
:1013940009F035FD042201215D4809F030FD2A469B
:1013A40001215B4809F02BFD01220021584809F076
:1013B40026FD02220021564809F021FD03220021C6
:1013C400534809F01CFD04220021514809F017FD7F
:1013D4002A4600214E4809F012FD2568062D40F0EA
:1013E400FD80012209214A4809F009FD0222092150
:1013F400474809F004FD03220921454809F0FFFC90
:1014040004220921424809F0FAFC05220921404836
:1014140009F0F5FC012208213D4809F0F0FC022204
:1014240008213B4809F0EBFC03220821384809F065
:10143400E6FC04220821364809F0E1FC05220821D3
:10144400334809F0DCFC01220721314809F0D7FCBC
:10145400022207212E4809F0D2FC032207212C483E
:1014640009F0CDFC04220721294809F0C8FC052213
:101474000721274809F0C3FC01222946244809F022
:10148400BEFC02222946224809F0B9FC032229465F
:101494001F4809F0B4FC042229461D4809F0AFFC9A
:1014A400052229461A4809F0AAFC012205211848F8
:1014B40009F09EFC02220521154809F099FC03223B
:1014C4000521134809F094FC04220521104809F071
:1014D4008FFC05220E48114609F08AFC01220421E2
:1014E4000B4809F08CFC02220421094809F087FC0E
:1014F40003220421064809F082FC04220448114610
:1015040009F07DFC05220421014809F078FC01E082
:101514008005002001220321D24809F070FC022238
:101524000321D04809F06BFC0322CE48114609F090
:1015340066FC04220321CB4809F061FC0522032147
:10154400C84809F05CFC01220221C64809F057FC96
:101554000222C448114609F052FC03220221C14868
:1015640009F04DFC04220221BE4809F048FC052282
:101574000221BC4809F043FC0122BA48114609F093
:101584003EFC02220121B74809F039FC0322012163
:10159400B44809F034FC04220121B24809F02FFCBC
:1015A40005220121AF4809F02AFC01220021AD489F
:1015B40009F025FC02220021AA4809F020FC03229C
:1015C4000021A84809F01BFC04220021A54809F0C9
:1015D40016FC05220021A34809F011FC2568072DFB
:1015E40040F0FA80012209219E4809F008FC0222F9
:1015F40009219C4809F003FC03220921994809F0B8
:10160400FEFB04220921974809F0F9FB0522092170
:10161400944809F0F4FB01220821924809F0EFFBF9
:10162400022208218F4809F0EAFB032208218D4891
:1016340009F0E5FB042208218A4809F0E0FB0522B1
:101644000821884809F0DBFB01222946854809F076
:10165400D6FB02222946834809F0D1FB03222946FE
:10166400804809F0CCFB042229467E4809F0C7FBD8
:10167400052229467B4809F0C2FB0122062179484C
:1016840009F0BDFB02220621764809F0B8FB0322CB
:101694000621744809F0B3FB04220621714809F0BD
:1016A400AEFB052206216F4809F0A9FB01220521A2
:1016B4006C4809F09DFB022205216A4809F098FB59
:1016C40003220521674809F093FB0422052165489C
:1016D40009F08EFB05226348114609F089FB0122BB
:1016E4000421604809F084FB022204215D4809F0CA
:1016F4007FFB032204215B4809F07AFB042259484A
:10170400114609F075FB05220421564809F070FBC7
:1017140001220321534809F072FB0222032151489C
:1017240009F06DFB03224F48114609F068FB0422BF
:1017340003214C4809F063FB05220321494809F0C1
:101744005EFB01220221474809F059FB0222454869
:10175400114609F054FB03220221424809F04FFBD1
:10176400042202213F4809F04AFB052202213D4898
:1017740009F045FB01223B48114609F040FB0222D7
:101784000121384809F03BFB03220121354809F0C7
:1017940036FB04220121334809F031FB05220121E3
:1017A400304809F02CFB012200212E4809F027FBC8
:1017B400022200212B4809F022FB032200212948A0
:1017C40009F01DFB04220021264809F018FB05221C
:1017D4000021244809F013FB2568082D40F0FD8002
:1017E400012209211F4809F00AFB022209211D4890
:1017F40009F005FB032209211A4809F000FB042221
:101804000921184809F0FBFA05220921154809F0B5
:10181400F6FA01222946134809F0F1FA0222294670
:10182400104809F0ECFA032229460E4809F0E7FAB9
:10183400042229460B4809F0E2FA05222946094800
:1018440009F0DDFA01220721064809F0D8FA02223C
:101854000721044809F0D3FA03220721014809F0BB
:10186400CEFA01E08005002004220721D34809F0C4
:10187400C6FA05220721D14809F0C1FA012206213E
:10188400CE4809F0BCFA02220621CC4809F0B7FA86
:1018940003220621C94809F0B2FA04220621C748E6
:1018A40009F0ADFA05220621C44809F0A8FA01227C
:1018B4000521C24809F0A3FA02220521BF4809F014
:1018C4009EFA03220521BD4809F099FA0422052154
:1018D400BA4809F094FA0522B848114609F08FFA7B
:1018E40001220421B54809F083FA02220421B348F5
:1018F40009F07EFA03220421B04809F079FA04229F
:10190400AE48114609F074FA05220421AB4809F0E7
:101914006FFA01220321A94809F071FA0222032176
:10192400A64809F06CFA0322A448114609F067FAA4
:1019340004220321A14809F062FA052203219F48E9
:1019440009F05DFA012202219C4809F058FA0222AA
:101954009A48114609F053FA03220221974809F0E4
:101964004EFA04220221954809F049FA052202217F
:10197400924809F044FA01229048114609F03FFACE
:10198400022201218D4809F03AFA032201218B48F1
:1019940009F035FA04220121884809F030FA0522B9
:1019A4000121864809F02BFA01220021834809F01D
:1019B40026FA02220021814809F021FA032200219B
:1019C4007E4809F01CFA042200217C4809F017FA29
:1019D40005220021794809F012FA2568092D40F002
:1019E400FE8001222946754809F009FA0222294697
:1019F400724809F004FA03222946704809F0FFF9F5
:101A0400042229466D4809F0FAF9052229466B4853
:101A140009F0F5F901220821684809F0F0F90222D9
:101A24000821664809F0EBF903220821634809F00C
:101A3400E6F904220821614809F0E1F905220821A8
:101A44005E4809F0DCF9012207215C4809F0D7F966
:101A540002220721594809F0D2F9032207215748E5
:101A640009F0CDF904220721544809F0C8F90522E8
:101A74000721524809F0C3F9012206214F4809F011
:101A8400BEF9022206214D4809F0B9F903220621C4
:101A94004A4809F0B4F904220621484809F0AFF98C
:101AA40005220621454809F0AAF9012205214348E7
:101AB40009F0A5F902220521404809F0A0F9032202
:101AC40005213E4809F09BF9042205213B4809F011
:101AD40096F905223948114609F091F901220421A9
:101AE400364809F085F902220421344809F080F9C6
:101AF40003220421314809F07BF904222F481146BE
:101B040009F076F9052204212C4809F071F9012223
:101B140003212A4809F06CF902220321274809F01D
:101B240067F903222548114609F062F904220321CA
:101B3400224809F05DF905220321204809F058F9EB
:101B4400012202211D4809F05AF902221B481146BC
:101B540009F055F903220221184809F050F904222A
:101B64000221164809F04BF905220221134809F015
:101B740046F901221148114609F041F902220121D6
:101B84000E4809F03CF9032201210C4809F037F909
:101B940004220121094809F032F9052201210748EC
:101BA40009F02DF901220021044809F028F9022244
:101BB4000021024809F023F902E000BF800500205B
:101BC40003220021D24809F01AF904220021D04846
:101BD40009F015F905220021CD4809F010F9236810
:101BE4000A2B40F0FA8001220921C94809F007F9BB
:101BF40002220921C64809F002F903220921C44836
:101C040009F0FDF804220921C14809F0F8F8052279
:101C14000921BF4809F0F3F801220821BC4809F062
:101C2400EEF802220821BA4809F0E9F80322082153
:101C3400B74809F0E4F804220821B54809F0DFF8B0
:101C440005220821B24809F0DAF801220721B04838
:101C540009F0D5F802220721AD4809F0D0F8032293
:101C64000721AB4809F0CBF804220721A84809F062
:101C7400C6F805220721A64809F0C1F80122062169
:101C8400A34809F0BCF802220621A14809F0B7F8DC
:101C9400032206219E4809F0B2F8042206219C483A
:101CA40009F0ADF805220621994809F0A8F80122A7
:101CB4000521974809F0A3F802220521944809F068
:101CC4009EF803220521924809F099F8042205217F
:101CD4008F4809F094F805228D48114609F08FF8D1
:101CE400012204218A4809F08AF802220421884842
:101CF40009F085F803220421854809F080F80422BC
:101D04008348114609F07BF805220421804809F034
:101D140076F8012203217E4809F06AF802220321A1
:101D24007B4809F065F803227948114609F060F808
:101D340004220321764809F05BF805220321744844
:101D440009F056F801220221714809F051F80222E3
:101D54006F48114609F04CF8032202216C4809F03F
:101D640047F8042202216A4809F042F805220221B8
:101D7400674809F03DF801226548114609F03FF82B
:101D840002220121624809F03AF803220121604845
:101D940009F035F8042201215D4809F030F80522E4
:101DA40001215B4809F02BF801220021584809F071
:101DB40026F802220021564809F021F803220021C6
:101DC400534809F01CF804220021514809F017F87F
:101DD400052200214E4809F012F823680B2B40F02D
:101DE400FD80012209214A4809F009F8022209214B
:101DF400474809F004F803220921454808F0FFFF89
:101E040004220921424808F0FAFF0522092140482A
:101E140008F0F5FF012208213D4808F0F0FF0222F6
:101E240008213B4808F0EBFF03220821384808F05A
:101E3400E6FF04220821364808F0E1FF05220821C4
:101E4400334808F0DCFF01220721314808F0D7FFAE
:101E5400022207212E4808F0D2FF032207212C4832
:101E640008F0CDFF04220721294808F0C8FF052205
:101E74000721274808F0C3FF01220621244808F05F
:101E8400BEFF02220621224808F0B9FF03220621E0
:101E94001F4808F0B4FF042206211D4808F0AFFFD4
:101EA400052206211A4808F0AAFF01220521184834
:101EB40008F0A5FF02220521154808F0A0FF03221F
:101EC4000521134808F09BFF04220521104808F05F
:101ED40096FF05220E48114608F091FF01220421C5
:101EE4000B4808F08CFF02220421094808F087FF00
:101EF40003220421064808F082FF04220448114604
:101F040008F07DFF05220421014808F078FF01E074
:101F14008005002001220321D24808F070FF02222C
:101F24000321D04808F06BFF0322CE48114608F085
:101F340066FF04220321CB4808F061FF0522032138
:101F4400C84808F05CFF01220221C64808F050FF8F
:101F54000222C448114608F04BFF03220221C14863
:101F640008F046FF04220221BE4808F041FF052282
:101F74000221BC4808F03CFF0122BA48114608F08F
:101F84003EFF02220121B74808F039FF0322012154
:101F9400B44808F034FF04220121B24808F02FFFAE
:101FA40005220121AF4808F02AFF01220021AD4893
:101FB40008F025FF02220021AA4808F020FF03228E
:101FC4000021A84808F01BFF04220021A54808F0BE
:101FD40016FF05220021A34808F011FF23680C2BEB
:101FE40040F0FA80012209219E4808F008FF0222ED
:101FF40009219C4808F003FF03220921994808F0AD
:10200400FEFE04220921974808F0F9FE0522092161
:10201400944808F0F4FE01220821924808F0EFFEEB
:10202400022208218F4808F0EAFE032208218D4885
:1020340008F0E5FE042208218A4808F0E0FE0522A3
:102044000821884808F0DBFE01220721854808F0B2
:10205400D6FE02220721834808F0D1FE032207217D
:10206400804808F0CCFE042207217E4808F0C7FE11
:10207400052207217B4808F0C2FE01220621794887
:1020840008F0BDFE02220621764808F0B8FE0322BD
:102094000621744808F0B3FE04220621714808F0B2
:1020A400AEFE052206216F4808F0A9FE0122052193
:1020B4006C4808F0A4FE022205216A4808F09FFE3D
:1020C40003220521674808F09AFE04220521654889
:1020D40008F095FE05226348114608F090FE01229F
:1020E4000421604808F08BFE022204215D4808F0B8
:1020F40086FE032204215B4808F081FE042259482D
:10210400114608F07CFE05220421564808F077FEAB
:1021140001220321534808F072FE02220321514890
:1021240008F06DFE03224F48114608F068FE0422B1
:1021340003214C4808F063FE05220321494808F0B6
:102144005EFE01220221474808F052FE0222454861
:10215400114608F04DFE03220221424808F048FED1
:10216400042202213F4808F043FE052202213D4893
:1021740008F03EFE01223B48114608F039FE0222D7
:102184000121384808F034FE03220121354808F0C3
:102194002FFE04220121334808F02AFE05220121E2
:1021A400304808F025FE012200212E4808F027FEC1
:1021B400022200212B4808F022FE03220021294894
:1021C40008F01DFE04220021264808F018FE05220E
:1021D4000021244808F013FE23680D2B40F0FD80F5
:1021E400012209211F4808F00AFE022209211D4884
:1021F40008F005FE032209211A4808F000FE042213
:102204000921184808F0FBFD05220921154808F0AA
:10221400F6FD01220821134808F0F1FD02220821ED
:10222400104808F0ECFD032208210E4808F0E7FDF1
:10223400042208210B4808F0E2FD05220821094880
:1022440008F0DDFD01220721064808F0D8FD02222E
:102254000721044808F0D3FD03220721014808F0B0
:10226400CEFD01E08005002004220721D34808F0B8
:10227400C6FD05220721D14808F0C1FD012206212F
:10228400CE4808F0BCFD02220621CC4808F0B7FD78
:1022940003220621C94808F0B2FD04220621C748DA
:1022A40008F0ADFD05220621C44808F0A8FD01226E
:1022B4000521C24808F0A3FD02220521BF4808F009
:1022C4009EFD03220521BD4808F099FD0422052145
:1022D400BA4808F094FD0522B848114608F08FFD6D
:1022E40001220421B54808F08AFD02220421B348E2
:1022F40008F085FD03220421B04808F080FD042283
:10230400AE48114608F07BFD05220421AB4808F0D5
:1023140076FD01220321A94808F071FD0222032160
:10232400A64808F06CFD0322A448114608F067FD96
:1023340004220321A14808F062FD052203219F48DD
:1023440008F05DFD012202219C4808F058FD02229C
:102354009A48114608F053FD03220221974808F0D9
:102364004EFD04220221954808F049FD0522022170
:10237400924808F044FD01229048114608F038FDC7
:10238400022201218D4808F033FD032201218B48EC
:1023940008F02EFD04220121884808F029FD0522B9
:1023A4000121864808F024FD01220021834808F019
:1023B4001FFD02220021814808F01AFD032200219A
:1023C4007E4808F015FD042200217C4808F010FD29
:1023D40005220021794808F00BFD23680E2B40F0FC
:1023E400FE8001220921754808F009FD0222092115
:1023F400724808F004FD03220921704808F0FFFC2C
:10240400042209216D4808F0FAFC052209216B48D1
:1024140008F0F5FC01220821684808F0F0FC0222CB
:102424000821664808F0EBFC03220821634808F001
:10243400E6FC04220821614808F0E1FC0522082199
:102444005E4808F0DCFC012207215C4808F0D7FC58
:1024540002220721594808F0D2FC032207215748D9
:1024640008F0CDFC04220721544808F0C8FC0522DA
:102474000721524808F0C3FC012206214F4808F006
:10248400BEFC022206214D4808F0B9FC03220621B5
:102494004A4808F0B4FC04220621484808F0AFFC7E
:1024A40005220621454808F0AAFC012205214348DB
:1024B40008F0A5FC02220521404808F0A0FC0322F4
:1024C40005213E4808F09BFC042205213B4808F006
:1024D40096FC05223948114608F091FC012204219A
:1024E400364808F08CFC02220421344808F087FCAA
:1024F40003220421314808F082FC04222F481146AB
:1025040008F07DFC052204212C4808F078FC012207
:1025140003212A4808F073FC02220321274808F00B
:102524006EFC03222548114608F069FC04220321AD
:10253400224808F064FC05220321204808F05FFCCF
:10254400012202211D4808F05AFC02221B481146B0
:1025540008F055FC03220221184808F050FC04221C
:102564000221164808F04BFC05220221134808F00A
:1025740046FC01221148114608F041FC02220121C7
:102584000E4808F03CFC032201210C4808F037FCFB
:1025940004220121094808F032FC052201210748E0
:1025A40008F02DFC01220021044808F021FC02223D
:1025B4000021024808F01CFC02E000BF8005002056
:1025C40003220021B14808F013FC04220021AF4883
:1025D40008F00EFC05220021AC4808F009FC236831
:1025E400AA48336008F0C4FCA94FAA4E3A6833687D
:1025F4009A4217D1A84B1A68A84B1B689A4211D16A
:10260400A74DA84C2B6822689A4255D0072B4ED868
:10261400DFE813F0D500B6009C00870077006C005B
:1026240066002A000024DFF8648264252946013507
:1026340022464046EDB208F0E2FB692DF6D10134A2
:10264400E4B2072CF1D13168944C643122788F487C
:10265400C9B208F0CDFB336822683B608E4B8B48CF
:102664001A6008F085FCCBE700225A21874808F05D
:10267400BFFB01225A21854808F0BAFB02225A21E5
:10268400824808F0B5FB03225A21804808F0B0FBC9
:1026940004225A217D4808F0ABFB05225A217B48CD
:1026A40008F0A6FB06225A21784808F0A1FB2B6803
:1026B4007648236008F05CFC7B4D7C4C2B682268D8
:1026C4009A4200F0C880072B00F2C080DFE813F0C4
:1026D4005D013E0124010F01FF00F400D7009B00BF
:1026E40000225A21694808F08AFBC2E700225A21D5
:1026F400664808F084FB01225A21644808F07FFBF5
:10270400BCE700225A21614808F079FB01225A21D2
:102714005E4808F074FB02225A215C4808F06FFB03
:10272400B1E700225A21594808F069FB01225A21D5
:10273400564808F064FB02225A21544808F05FFB13
:1027440003225A21514808F05AFBA1E700225A21DA
:102754004E4808F054FB01225A214C4808F04FFB24
:1027640002225A21494808F04AFB03225A214748C9
:1027740008F045FB04225A21444808F040FB8CE74A
:1027840000225A21414808F03AFB01225A213F48CD
:1027940008F035FB02225A213C4808F030FB0322A2
:1027A4005A213A4808F02BFB04225A21374808F0F2
:1027B40026FB05225A21354808F021FB72E7002246
:1027C4005A21324808F01BFB01225A212F4808F0F5
:1027D40016FB02225A212D4808F011FB03225A212C
:1027E4002A4808F00CFB04225A21284808F007FB69
:1027F40005225A21254808F002FB06225A212348C3
:1028040008F0FDFA53E700225C21204808F0F0FAB2
:1028140001225C211D4808F0EBFA02225C211B48CE
:1028240008F0E6FA03225C21184808F0E1FA0422D1
:102834005C21164808F0DCFA05225C21134808F0F4
:10284400D7FA06225C21114808F0D2FA2B680F4807
:10285400236008F08DFB164D164C2B6822689A42B3
:1028640000F0DF80072B00F2D780DFE813F05D0172
:102874003E0124010F01FF00F400EE00B20000222B
:102884005C21024808F0BBFAC2E700BF80050020C3
:102894004C05002054050020480500205005002068
:1028A400B4050020F0010020B0050020EC01002058
:1028B400AC050020E801002000225C21AC4808F0AF
:1028C4009EFA01225C21AA4808F099FAA5E70022A1
:1028D4005C21A74808F093FA01225C21A44808F07F
:1028E4008EFA02225C21A24808F089FA9AE70022B3
:1028F4005C219F4808F083FA01225C219C4808F07F
:102904007EFA02225C219A4808F079FA03225C21BB
:10291400974808F074FA8AE700225C21944808F08A
:102924006EFA01225C21924808F069FA02225C21C5
:102934008F4808F064FA03225C218D4808F05FFA9E
:1029440004225C218A4808F05AFA75E700225C21C7
:10295400874808F054FA01225C21854808F04FFAB0
:1029640002225C21824808F04AFA03225C21804852
:1029740008F045FA04225C217D4808F040FA05225B
:102984005C217B4808F03BFA5BE700225C21784835
:1029940008F035FA01225C21754808F030FA022269
:1029A4005C21734808F02BFA03225C21704808F07C
:1029B40026FA04225C216E4808F021FA05225C21E3
:1029C4006B4808F01CFA06225C21694808F017FAE3
:1029D4003CE700225E21664808F00AFA01225E21E3
:1029E400634808F005FA02225E21614808F000FA03
:1029F40003225E215E4808F0FBF904225E215C4854
:102A040008F0F6F905225E21594808F0F1F906228A
:102A14005E21574808F0ECF92B685548236008F00C
:102A2400A7FA544D544C2B6822689A4200F0CE8089
:102A3400072B00F2C680DFE813F04C012D011301CF
:102A4400FE00EE00E300DD00A10000225E21484804
:102A540008F0D5F9C2E700225E21454808F0CFF915
:102A640001225E21424808F0CAF9BCE700225E2137
:102A74003F4808F0C4F901225E213D4808F0BFF93F
:102A840002225E213A4808F0BAF9B1E700225E2139
:102A9400374808F0B4F901225E21354808F0AFF94F
:102AA40002225E21324808F0AAF903225E2130484E
:102AB40008F0A5F9A1E700225E212D4808F09FF94E
:102AC40001225E212A4808F09AF902225E21284850
:102AD40008F095F903225E21254808F090F90422B4
:102AE4005E21234808F08BF98CE700225E21204800
:102AF40008F085F901225E211D4808F080F90222C0
:102B04005E211B4808F07BF903225E21184808F077
:102B140076F904225E21164808F071F905225E2137
:102B2400134808F06CF972E700225E21104808F09F
:102B340066F901225E210E4808F061F902225E2145
:102B44000B4808F05CF903225E21094808F057F9A4
:102B540004225E21064808F052F905225E21044849
:102B640008F04DF906225E21014808F048F953E7C0
:102B74008005002044050020C801002000220A210D
:102B8400BB4808F035F901220A21B94808F030F9A8
:102B940002220A21B64808F02BF903220A21B4487C
:102BA40008F026F904220A21B14808F021F9052287
:102BB4000A21AF4808F01CF906220A21AC4808F0A3
:102BC40017F92B68AA48236008F0D2F9A94DAA4C3A
:102BD4002B6822689A4200F0C880072B00F2C0805C
:102BE400DFE813F0500127010D01F800E800DD00D3
:102BF400D7009B0000220A219D4808F000F9C2E793
:102C040000220A219A4808F0FAF801220A21984879
:102C140008F0F5F8BCE700220A21954808F0EFF81F
:102C240001220A21924808F0EAF802220A21904877
:102C340008F0E5F8B1E700220A218D4808F0DFF832
:102C440001220A218A4808F0DAF802220A21884877
:102C540008F0D5F803220A21854808F0D0F8A1E746
:102C640000220A21824808F0CAF801220A21804879
:102C740008F0C5F802220A217D4808F0C0F80322B2
:102C84000A217B4808F0BBF804220A21784808F09E
:102C9400B6F88CE700220A21754808F0B0F8012242
:102CA4000A21734808F0ABF802220A21704808F0A0
:102CB400A6F803220A216E4808F0A1F804220A218A
:102CC4006B4808F09CF805220A21694808F097F837
:102CD40072E700220A21664808F091F801220A21CD
:102CE400634808F08CF802220A21614808F087F84A
:102CF40003220A215E4808F082F804220A215C4873
:102D040008F07DF805220A21594808F078F80622CF
:102D14000A21574808F073F853E700220C2154485D
:102D240008F066F801220C21514808F061F80222EB
:102D34000C214F4808F05CF803220C214C4808F0A1
:102D440057F804220C214A4808F052F805220C21B5
:102D5400474808F04DF806220C21454808F048F889
:102D64002B684348236008F003F9444D444C2B6816
:102D740022689A4200F0D480072B00F2CC80DFE86E
:102D840013F0430424040A04F503E50364035E0317
:102D9400A70000220C21364808F031F8C2E70022CF
:102DA4000C21334808F02BF801220C21304808F09C
:102DB40026F8BCE700220C212D4808F020F8012257
:102DC4000C212B4808F01BF802220C21284808F09B
:102DD40016F8B1E700220C21254808F010F801226A
:102DE4000C21234808F00BF802220C21204808F09B
:102DF40006F803220C211E4808F001F8A1E700227E
:102E04000C211B4807F0FBFF01220C21184807F096
:102E1400F6FF02220C21164807F0F1FF03220C21D1
:102E2400134807F0ECFF04220C21114807F0E7FFD8
:102E34008CE700220C210E4807F0E1FF01220C214F
:102E44000B4807F0DCFF02220C21094807F0D7FFEA
:102E540003220C21064807F0D2FF04220C21044867
:102E640007F0CDFF05220C21014807F0C8FF72E7E7
:102E74008005002040050020C40100203C050020FE
:102E8400C001002000220C21104807F0B8FF0122E5
:102E94000C210E4807F0B3FF02220C210B4807F067
:102EA400AEFF03220C21094807F0A9FF04220C21DC
:102EB400064807F0A4FF05220C21044807F09FFFF1
:102EC40006220C21014807F09AFF49E780050020FB
:102ED40000220E21934807F08BFF01220E21914816
:102EE40007F086FF02220E218E4807F081FF03229D
:102EF4000E218C4807F07CFF04220E21894807F03C
:102F040077FF05220E21874807F072FF06220E2163
:102F1400844807F06DFF2B688248236008F028F886
:102F2400814E824D32682B689A4240F09183804CE6
:102F3400804D22782B78934240F043867E4908786E
:102F44007E490978814240F03C867D4806787D4878
:102F54000078864240F0358631B17B4A11787B4A4D
:102F64001278914242F06384794C7A4D22782B781E
:102F7400934240F047877849087878490978814234
:102F840040F040877648067876480078864240F0DC
:102F9400398731B16C4A11786C4A1278914242F007
:102FA4000B84714C714D22782B78934240F0CE877C
:102FB4006F4908786F490978814240F0C7876E48A5
:102FC40006786E480078864240F0C08731B15E4A88
:102FD40011785E4A1278914242F0CE83684C694D72
:102FE40022782B78934241F07580674908786749C5
:102FF4000978814241F06E8065480678654800781A
:10300400864241F0678031B14F4A11784F4A1278B5
:10301400914242F09183604C604D22782B78934228
:1030240041F0FC805E4908785E490978814241F0AC
:10303400F5805D4806785D480078864241F0EE8070
:1030440031B1414A1178414A1278914242F0548395
:10305400574C584D22782B78934241F0838156493E
:10306400087856490978814241F07C8154480678B1
:1030740054480078864241F0758131B1324A117862
:10308400324A1278914242F017834F4C4F4D2278C6
:103094002B78934241F02A824D4908784D490978AA
:1030A400814241F023824C4806784C48007886429D
:1030B40041F01C8231B14A4A11784A4A127891424D
:1030C40042F0D882484C494D22782B78934241F003
:1030D4009D824749087847490978814241F09682A0
:1030E4004548067845480078864241F08F8231B1E0
:1030F4003B4A11783B4A1278914242F09B82404C01
:10310400404D22782B78934241F033833E4908782E
:103114003E490978814241F02C833D4806783D4878
:10312400007879E080050020BC01002038050020EB
:10313400BA04002084040020AE0400207804002097
:10314400B40400207E04002001050020FE040020B9
:10315400B904002083040020AD040020770400207B
:10316400B30400207D040020B80400208204002061
:10317400AC04002076040020B20400207C0400206B
:10318400B704002081040020AB0400207504002053
:10319400B10400207B040020B60400208004002039
:1031A400AA04002074040020B00400207A04002043
:1031B400B50400207F040020A9040020730400202B
:1031C400AF04002079040020A80400207204002029
:1031D4009C04002066040020A20400206C0400204B
:1031E40000050020FD040020A70400207104002035
:1031F4009B04002065040020A10400206B0400202F
:10320400A6040020700400209A0400206404002016
:10321400A00400206A040020864241F0AA8231B151
:103224008F4A11788F4A1278914242F0E3818E4C92
:103234008E4D22782B78934241F02B838C49087869
:103244008C490978814241F024838B4806788B4865
:103254000078864241F01D8331B1814A1178814A58
:103264001278914242F0A681854C864D22782B78C3
:10327400934241F09E8384490878844909788142C5
:1032840041F097838248067882480078864241F06C
:10329400908331B1724A1178724A1278914242F0A5
:1032A40069817D4C7D4D22782B78934241F03284A4
:1032B4007B4908787B490978814241F02B847A481C
:1032C40006787A480078864241F0248431B1644A11
:1032D4001178644A1278914242F02C81744C754DF5
:1032E40022782B78934241F0A58473490878734976
:1032F4000978814241F09E847148067871480078CB
:10330400864241F0978431B16F4A11786F4A12783E
:10331400914242F0EF806E4C6E4D22782B789342AE
:1033240041F03B856C4908786C490978814241F049
:1033340034856B4806786B480078864241F02D85C9
:1033440031B1614A1178614A1278914242F0B380F6
:10335400654C664D22782B78934241F0AE856449E2
:10336400087864490978814241F0A7856248067863
:1033740062480078864241F0A08531B1524A117802
:10338400524A1278914242F077805D4C5D4D22782A
:103394002B78934241F021865B4908785B49097890
:1033A400814241F01A865A4806785A480078864283
:1033B40041F0138631B1444A1178444A127891425B
:1033C40042F03B80544C554D22782B78934241F087
:1033D400B5865349087853490978814241F0AE864D
:1033E4005148067851480078864241F0A78631B1A9
:1033F400354A1178354A1278914241F0FF874C4C96
:103404004C4D22782B78934241F028874A4908781A
:103414004A490978814241F0218749480678494858
:103424000078864241F01A8731B1274A1178274A39
:103434001278914241F0C38709B0BDE8F08F0022B1
:103444000E21414807F0DBFC47E500220E213E48EF
:1034540007F0D5FC01220E213B4807F0D0FC41E5E2
:1034640000050020FD040020A50400206F040020B6
:1034740099040020630400209F04002069040020B4
:10348400A40400206E04002098040020620400209C
:103494009E04002068040020A30400206D04002082
:1034A40097040020610400209D040020670400208C
:1034B40096040020600400208A04002054040020A4
:1034C400900400205A040020FF040020FC04002083
:1034D400950400205F040020890400205304002088
:1034E4008F04002059040020940400205E0400206E
:1034F40088040020520400208E0400205804002078
:10350400930400205D04002087040020510400205F
:103514008D04002057040020920400205C04002045
:1035240086040020500400208C040020560400204F
:10353400910400205B040020850400204F04002037
:103544008B040020550400208005002000220E2159
:103554009F4807F054FC01220E219D4807F04FFCC0
:1035640002220E219A4807F04AFCC0E400220E21F0
:10357400974807F044FC01220E21954807F03FFCD0
:1035840002220E21924807F03AFC03220E219048B1
:1035940007F035FCB0E400220E218D4807F02FFC23
:1035A40001220E218A4807F02AFC02220E218848B3
:1035B40007F025FC03220E21854807F020FC042295
:1035C4000E21834807F01BFC9BE400220E21804857
:1035D40007F015FC01220E217D4807F010FC0222A1
:1035E4000E217B4807F00BFC03220E21784807F0DC
:1035F40006FC04220E21764807F001FC05220E2168
:10360400734807F0FCFB81E400220E21704807F0A8
:10361400F6FB01220E216E4807F0F1FB02220E2177
:103624006B4807F0ECFB03220E21694807F0E7FB27
:1036340004220E21664807F0E2FB05220E216448AD
:1036440007F0DDFB06220E21614807F0D8FB62E497
:103654000027DFF87C813724214601343A4640466E
:10366400E4B207F0CCFB5A2CF6D10137FFB2072F96
:10367400F1D12C686F2C08D15648FDF78FF801233F
:10368400554A1370554A13700CE0B4F5847F80F2E8
:103694003181C72C15DC012C00F08D82643C3F2C59
:1036A40040F2A2802B684A48336007F061FC4C4921
:1036B4004C480BF00CFE0A2229684A480BF06BFEBA
:1036C40035E4C83C3F2CEDD801A353F824F000BFE7
:1036D400D53A0008A9360008A9360008A93600081A
:1036E400A9360008A9360008A9360008A93600083A
:1036F400A9360008A9360008A9360008813A00084E
:10370400A53A0008BD3A0008D93A0008893B0008E8
:10371400A9360008A9360008A9360008A936000809
:10372400A9360008913A0008A93A0008C13A0008ED
:10373400E93A0008B73B0008A9360008A936000892
:10374400A9360008A9360008A9360008953A0008E9
:10375400AD3A0008C53A0008A9360008A9360008A1
:10376400A9360008A9360008A9360008A9360008B9
:10377400A9360008993A0008B13A0008C93A000885
:10378400A9360008A9360008A9360008A936000899
:10379400A9360008A9360008A93600089D3A000891
:1037A400B53A0008CD3A0008A9360008A936000841
:1037B400A9360008A9360008A9360008A936000869
:1037C400A9360008A13A0008B93A0008D13A00081D
:1037D40080050020DCFD0008B00100204E0400201C
:1037E40049FF0008FC0B00203F2C3FF65BAF01A310
:1037F40053F824F0553A0008A9360008A936000801
:10380400A9360008A9360008A9360008A936000818
:10381400A9360008A9360008A9360008A936000808
:10382400A9360008253A00083D3A0008593A00082C
:10383400893B0008A9360008A9360008A936000803
:10384400A9360008A9360008113A0008293A0008E8
:10385400413A0008713A0008B73B0008A93600084D
:10386400A9360008A9360008A9360008A9360008B8
:10387400153A00082D3A0008453A0008A936000810
:10388400A9360008A9360008A9360008A936000898
:10389400A9360008A9360008193A0008313A000888
:1038A400493A0008A9360008A9360008A9360008D4
:1038B400A9360008A9360008A9360008A936000868
:1038C4001D3A0008353A00084D3A0008A9360008A8
:1038D400A9360008A9360008A9360008A936000848
:1038E400A9360008A9360008213A0008393A000828
:1038F400513A0008A4F596743F2C3FF6D3AE3F2C02
:103904003FF6D0AE01A353F824F000BF4D3B0008AE
:10391400A9360008A9360008A9360008A936000807
:10392400A9360008A9360008A9360008A9360008F7
:10393400A9360008A9360008F93A00081D3B00081A
:10394400353B0008693B0008893B0008A93600089C
:10395400A9360008A9360008A9360008A9360008C7
:10396400093B0008213B0008393B0008793B00086B
:10397400B73B0008A9360008A9360008A936000894
:10398400A9360008A93600080D3B0008253B0008AD
:103994003D3B0008A9360008A9360008A9360008EE
:1039A400A9360008A9360008A9360008A936000877
:1039B400113B0008293B0008413B0008A9360008D8
:1039C400A9360008A9360008A9360008A936000857
:1039D400A9360008A9360008153B00082D3B00084D
:1039E400453B0008A9360008A9360008A936000896
:1039F400A9360008A9360008A9360008A936000827
:103A0400193B0008313B0008493B00088B4834E669
:103A14008B4832E68B4830E68B482EE68B482CE602
:103A24008B482AE68B4828E68B4826E68B4824E612
:103A34008B4822E68B4820E68B481EE68B481CE622
:103A44008B481AE68B4818E68B4816E68B4814E632
:103A54008B4812E68B48FCF7A1FE01218A4B1970B2
:103A6400C5200BF013FFFCF78DFD1BE68748FCF720
:103A740095FE0122844B00211A70F1E78448FCF77B
:103A84008DFE0123804A1370824AFCE58248F6E7E2
:103A94008248F4E78248F2E78248F0E78248EEE79A
:103AA4008248ECE78248EAE78248E8E78248E6E7AA
:103AB4008248E4E78248E2E78248E0E78248DEE7BA
:103AC4008248DCE78248DAE78248D8E78248D6E7CA
:103AD4006B48D4E76B48FCF761FE01216A4B19700F
:103AE4000820BEE76948FCF759FE0122664B002115
:103AF4001A70F5E77948FCF751FE0123624A137006
:103B0400774AC0E57748F6E77748F4E77748F2E77D
:103B14007748F0E77748EEE77748ECE77748EAE755
:103B24007748E8E77748E6E77748E4E77748E2E765
:103B34007748E0E77748DEE77748DCE77748DAE775
:103B44007748D8E77748D6E7774B1B68012B01D134
:103B54007648D0E7022B01D17548CCE7032BCCD1B2
:103B64007448C8E74748FCF719FE0121464B197011
:103B7400182076E74548FCF711FE0122424B00214C
:103B84001A70F5E76C4B1422002103A802930CF081
:103B94000AF86A4B0A22186869460BF068FD014668
:103BA40002A80BF0F1FFFCF7F9FD0122364B1A7065
:103BB40059E7634BE7E76348FCF7F0FD324B1C70B1
:103BC40070E5002A01F03686DFF87C9199F80060F0
:103BD400002E40F0C380DFF87481DFF874B198F8E8
:103BE4000070DFF870A1002F40F0F2803A460F21F8
:103BF400594807F004F93A461021574807F0FFF8EE
:103C04003A461121544807F0F3F83A461221524833
:103C140007F0F5F83A4613214F4807F0F0F82378F7
:103C24002B7099F800308BF8003098F800308AF83F
:103C34000030494807F09CF9FFF796B9E2FD000807
:103C4400E8FD0008EEFD0008F4FD0008FAFD000898
:103C540000FE000806FE00080CFE000812FE000824
:103C640018FE00081EFE000824FE00082AFE0008B4
:103C740030FE000836FE00083CFE000842FE000844
:103C84002EFF000848FE0008B001002050FE000886
:103C940055FE00084D0400205BFE000861FE00088C
:103CA40067FE00086DFE000873FE000879FE000838
:103CB4007FFE000885FE00088BFE000891FE0008C8
:103CC40097FE00089DFE0008A3FE0008A9FE000858
:103CD400AFFE0008B5FE0008BBFE0008C1FE0008E8
:103CE4004C040020C7FE0008CDFE0008D3FE0008E7
:103CF400D9FE0008DFFE0008E5FE0008EBFE000820
:103D0400F1FE0008F7FE0008FDFE000803FF0008AE
:103D140009FF00080FFF000815FF00081BFF00083B
:103D240021FF000827FF0008900100202DFF000854
:103D340034FF00083BFF00085A2B2000D804002061
:103D44005A2D200042FF0008AE040020B4040020D5
:103D5400780400207E04002080050020DFF804930E
:103D640099F80070002F7FF464AFDFF8FC82DFF86D
:103D7400FCB298F80060DFF8F8A2002E01F03C8550
:103D84003A460F21BB4807F033F83A461021B948A8
:103D940007F035F83A461121B64807F029F83A46B3
:103DA4001221B44807F02BF83A461321B14807F022
:103DB4001FF8227899F800302A709BF800208AF8BE
:103DC4000020AD4A137098F80030AC4A137030E705
:103DD40032460F21A74807F00BF832461021A548B8
:103DE40007F006F832461121A24807F001F83246DE
:103DF4001221A04806F0FCFF324613219D4806F02C
:103E0400F7FF0CE7002A01F0DA84DFF8749299F8DE
:103E140000606EBBDFF86C82DFF86CB298F800705B
:103E2400DFF868A2002F77D13A461721914806F0AF
:103E3400E6FF3A4618218F4806F0E1FF3A46192179
:103E44008C4806F0D5FF3A461A218A4806F0D7FF77
:103E54003A461B21874806F0D2FF23782B7099F845
:103E640000308BF8003098F800308AF8003034E0E5
:103E7400DFF8109299F800707FBBDFF8EC81DFF86F
:103E840000B298F80060DFF800A25EB33A4617214A
:103E9400784806F0ADFF3A461821764806F0AFFFA1
:103EA4003A461921734806F0A3FF3A461A2171488D
:103EB40006F0A5FF3A461B216E4806F099FF2278CA
:103EC40099F800302A709BF800208AF800206F4A85
:103ED400137098F80030694A1370664807F048F880
:103EE400FFF75FB832461721624806F088FF324672
:103EF4001821604806F07CFF324619215D4806F01F
:103F04007EFF32461A215B4806F072FF32461B21BF
:103F1400584806F074FFD2E732461721554806F098
:103F240067FF32461821534806F062FF32461921D2
:103F3400504806F05DFF32461A214E4806F058FFFD
:103F440032461B214B4806F053FF86E7002A01F056
:103F54001684DFF83C9199F8006076BBDFF8348171
:103F6400DFF834B198F80070DFF830A1002F40F08A
:103F740097803A461E213F4806F041FF3A461F21EA
:103F84003C4806F03CFF3A4620213A4806F030FF10
:103F94003A462121374806F032FF3A462221354875
:103FA40006F02DFF23782B7099F800308BF8003041
:103FB40098F800308AF8003034E0DFF8D89099F8A7
:103FC40000707FBBDFF8A080DFF8C4B098F8006011
:103FD400DFF8C4A05EB33A461E21264806F008FF67
:103FE4003A461F21234806F00AFF3A462021214879
:103FF40006F0FEFE3A4621211E4806F000FF3A462E
:1040040022211C4806F0F4FE227899F800302A7028
:104014009BF800208AF80020204A137098F800309A
:10402400164A1370134806F0A3FFFEF7D7BF3246B3
:104034001E21104806F0E3FE32461F210D4806F00B
:10404400D7FE324620210B4806F0D9FE3246212104
:10405400084806F0CDFE32462221064806F0CFFE7F
:10406400D2E700BFB404002001050020AE04002004
:1040740078040020800500207E040020FE04002037
:10408400AD040020B3040020770400207D04002048
:10409400AC040020B2040020760400207C0400203C
:1040A40032461E21CB4806F0A3FE32461F21C948E2
:1040B40006F09EFE32462021C64806F099FE32469E
:1040C4002121C44806F094FE32462221C14806F05C
:1040D4008FFE67E7002A01F03283DFF8FC9299F83B
:1040E40000606EBBDFF8F482DFF8F4B298F8007079
:1040F400DFF8F0A2002F77D13A462521B54806F023
:104104007EFE3A462621B34806F079FE3A46272138
:10411400B04806F06DFE3A462821AE4806F06FFE20
:104124003A462921AB4806F06AFE23782B7099F8A9
:1041340000308BF8003098F800308AF8003034E012
:10414400DFF8989299F800707FBBDFF89C82DFF863
:1041540088B298F80060DFF888A25EB33A46252159
:104164009C4806F045FE3A4626219A4806F047FE4A
:104174003A462721974806F03BFE3A4628219548BF
:1041840006F03DFE3A462921924806F031FE227897
:1041940099F800302A709BF800208AF80020914A90
:1041A400137098F80030914A13708A4806F0E0FEC4
:1041B400FEF731BF32462521864806F020FE3246FE
:1041C4002621844806F014FE32462721814806F051
:1041D40016FE324628217F4806F00AFE324629217F
:1041E4007C4806F00CFED2E732462521794806F0D9
:1041F400FFFD32462621774806F0FAFD3246272194
:10420400744806F0F5FD32462821724806F0F0FDA8
:10421400324629216F4806F0EBFD86E7002A01F0BB
:104224006E82DFF8CC9199F800606EBBDFF8C48130
:10423400DFF8C4B198F80070DFF8C0A1002F77D17F
:104244003A462B21634806F0DAFD3A462C216148B0
:1042540006F0D5FD3A462D215E4806F0C9FD3A46E2
:104264002E215C4806F0CBFD3A462F21594806F032
:10427400C6FD23782B7099F800308BF8003098F83D
:1042840000308AF8003034E0DFF8689199F8007063
:104294007FBBDFF85481DFF858B198F80060DFF88D
:1042A40058A15EB33A462B214A4806F0A1FD3A468E
:1042B4002C21484806F0A3FD3A462D21454806F036
:1042C40097FD3A462E21434806F099FD3A462F21A0
:1042D400404806F08DFD227899F800302A709BF84A
:1042E40000208AF80020454A137098F800303F4AAD
:1042F4001370384806F03CFEFEF7AABE32462B2166
:10430400344806F07CFD32462C21324806F070FD1C
:1043140032462D212F4806F072FD32462E212D48BB
:1043240006F066FD32462F212A4806F068FDD2E7E2
:1043340032462B21274806F05BFD32462C212548C6
:1043440006F056FD32462D21224806F051FD324634
:104354002E21204806F04CFD32462F211D4806F040
:1043640047FD86E7002A01F0AA81DFF8949099F8C6
:104374000060002E4CD1DFF88C80DFF88CB098F808
:104384000070DFF888A0002F40F096803A46322172
:10439400104806F034FD3A4633210E4806F02FFD4E
:1043A4003A4634210B4806F023FD3A4635210948A4
:1043B40006F025FD3A463621064806F020FD23780E
:1043C4002B7099F800308BF8003098F800308AF898
:1043D400003052E080050020AB040020B10400202E
:1043E400750400207B04002001050020FE04002049
:1043F400AA040020B0040020740400207A040020E1
:10440400A9040020AF0400207304002079040020D4
:10441400DFF8EC9299F800707FBBDFF8E882DFF8F0
:10442400E8B298F80060DFF8E4A25EB33A463221BD
:10443400B74806F0DDFC3A463321B54806F0DFFC08
:104444003A463421B24806F0D3FC3A463521B04806
:1044540006F0D5FC3A463621AD4806F0C9FC227870
:1044640099F800302A709BF800208AF80020A94AA5
:10447400137098F80030A84A1370A54806F078FD28
:10448400FEF703BE32463221A14806F0B8FC32469C
:1044940033219F4806F0ACFC324634219C4806F098
:1044A400AEFC324635219A4806F0A2FC324636214B
:1044B400974806F0A4FCD2E732463221944806F02D
:1044C40097FC32463321924806F092FC324634215E
:1044D4008F4806F08DFC324635218D4806F088FC65
:1044E400324636218A4806F083FC68E7002A01F048
:1044F400C4808A4F3B781BBB894E032233780F213B
:10450400DFF82092DFF820828148002B67D106F083
:1045140076FC032210217E4806F071FC032211214F
:104524007B4806F065FC03221221794806F067FCFB
:1045340003221321764806F062FC23782B702CE0CA
:10454400774F3B787BBB794E032233780F21DFF81A
:10455400CCB1DFF8D0A1DFF8D091DFF8D4816C487A
:1045640033B306F045FC03221021694806F047FCEA
:1045740003221121664806F03BFC03221221644801
:1045840006F03DFC03221321614806F031FC237838
:104594002B709BF800308AF800303B7889F80030A3
:1045A400337888F800305A4806F0E2FCFEF78ABDFA
:1045B40006F025FC03221021554806F019FC0322BD
:1045C4001121534806F01BFC03221221504806F027
:1045D4000FFC032213214E4806F011FCD7E706F026
:1045E40007FC032210214A4806F002FC0322112191
:1045F400474806F0FDFB03221221454806F0F8FB6C
:1046040003221321424806F0F3FB96E7002A01F047
:104614001480484F3B7823BB474E0322337817213D
:10462400DFF81891DFF818813948002B40F08A80B0
:1046340006F0E5FB03221821354806F0E0FB0322CF
:104644001921334806F0D4FB03221A21304806F01E
:10465400D6FB03221B212E4806F0D1FB23782B70B6
:104664002CE0354F3B787BBB304E03223378172147
:10467400DFF8BC80DFF8BCB0DFF8C0A0DFF8C09082
:10468400234833B306F0B4FB03221821204806F074
:10469400B6FB032219211E4806F0AAFB03221A21A5
:1046A4001B4806F0ACFB03221B21194806F0A0FBB3
:1046B40023782B709BF800308AF800303B7889F817
:1046C4000030337888F80030114806F051FCFEF7CA
:1046D40016BD06F094FB032218210D4806F088FB52
:1046E400032219210A4806F08AFB03221A210848EA
:1046F40006F07EFB03221B21054806F080FBD7E76A
:10470400AF04002001050020A90400207304002048
:104714008005002079040020FE0400209C04002071
:10472400A2040020660400206C0400200005002080
:10473400FD0400209B040020A10400206504002047
:104744006B04002006F054FB03221821AF4806F046
:104754004FFB03221921AD4806F04AFB03221A211C
:10476400AA4806F045FB03221B21A84806F040FB9B
:1047740074E7002A00F04187A54F3B781BBBA54E88
:10478400032233781E21DFF89092DFF890829F484D
:10479400002B67D106F033FB03221F219B4806F050
:1047A4002EFB03222021994806F022FB032221211B
:1047B400964806F024FB03222221944806F01FFBAE
:1047C40023782B702CE0934F3B787BBB944E0322D1
:1047D40033781E21DFF84C82DFF834B2DFF838A2D8
:1047E400DFF83892894833B306F002FB03221F2115
:1047F400864806F004FB03222021844806F0F8FAD8
:1048040003222121814806F0FAFA032222217F485B
:1048140006F0EEFA23782B709BF800308AF800300B
:104824003B7889F80030337888F80030774806F010
:104834009FFBFEF7FCBC06F0E2FA03221F2173483B
:1048440006F0D6FA03222021704806F0D8FA032293
:1048540021216E4806F0CCFA032222216B4806F08F
:10486400CEFAD7E706F0C4FA03221F21674806F000
:10487400BFFA03222021654806F0BAFA0322212157
:10488400624806F0B5FA03222221604806F0B0FA25
:1048940096E7002A00F09186634F3B781BBB634E7A
:1048A400032233782521DFF88891DFF8888157487F
:1048B400002B67D106F0A3FA03222621534806F001
:1048C4009EFA03222721514806F092FA0322282156
:1048D4004E4806F094FA032229214C4806F08FFA38
:1048E40023782B702CE0514F3B787BBB4C4E03223A
:1048F40033782521DFF82C81DFF82CB1DFF830A1E3
:10490400DFF83091414833B306F072FA03222621CE
:104914003E4806F074FA032227213C4806F068FA60
:1049240003222821394806F06AFA0322292137484C
:1049340006F05EFA23782B709BF800308AF800307A
:104944003B7889F80030337888F800302F4806F037
:104954000FFBFEF789BC06F052FA032226212B48EE
:1049640006F046FA03222721284806F048FA0322D3
:104974002821264806F03CFA03222921234806F080
:104984003EFAD7E706F034FA032226211F4806F040
:104994002FFA032227211D4806F02AFA0322282190
:1049A4001A4806F025FA03222921184806F020FAAD
:1049B40096E7002A00F0E1851F4F3B78002B43D196
:1049C4001E4E032233782B21DFF87490DFF87480B5
:1049D4000E48002B40F0878006F011FA03222C21A8
:1049E4000A4806F00CFA03222D21084806F000FAC2
:1049F40003222E21054806F002FA03222F21034840
:104A040006F0FDF923782B704BE000BF80050020F1
:104A14009A040020A0040020640400206A040020FA
:104A240000050020FD040020990400209F040020BC
:104A34006304002069040020980400209E040020E0
:104A44006204002068040020B74F3B787BBBB74E5C
:104A5400032233782B21DFF8D882DFF8D8B2DFF8CD
:104A6400D8A2DFF8D892B64833B306F0C1F90322CE
:104A74002C21B34806F0C3F903222D21B04806F0D7
:104A8400B7F903222E21AE4806F0B9F903222F21EB
:104A9400AB4806F0ADF923782B709BF800308AF808
:104AA40000303B7889F80030337888F80030A44827
:104AB40006F05EFAFEF7F5BB06F0A1F903222C21FD
:104AC4009F4806F095F903222D219D4806F097F999
:104AD40003222E219A4806F08BF903222F219848AD
:104AE40006F08DF9D7E706F083F903222C219448C8
:104AF40006F07EF903222D21914806F079F903226C
:104B04002E218F4806F074F903222F218C4806F0D9
:104B14006FF977E7002A00F010858A4F3B781BBBBA
:104B2400894E032233783221DFF82092DFF8208285
:104B34008348002B67D106F062F9032233218048B1
:104B440006F05DF9032234217D4806F051F9032271
:104B540035217B4806F053F903223621784806F0C4
:104B64004EF923782B702CE0774F3B787BBB6F4E4C
:104B7400032233783221DFF8B881DFF8C8B1DFF8D7
:104B8400CCA1DFF8CC916E4833B306F031F903229F
:104B940033216B4806F033F903223421684806F0C8
:104BA40027F903223521664806F029F90322362124
:104BB400634806F01DF923782B709BF800308AF8BF
:104BC40000303B7889F80030337888F800305C484E
:104BD40006F0CEF9FEF782BB06F011F90322332169
:104BE400574806F005F903223421554806F007F921
:104BF40003223521524806F0FBF80322362150489F
:104C040006F0FDF8D7E706F0F3F8032233214C4809
:104C140006F0EEF803223421494806F0E9F80322AD
:104C24003521474806F0E4F803223621444806F0CB
:104C3400DFF896E7002A00F06084464F3B7823BBF8
:104C4400454E062233780F21DFF81091DFF81081EA
:104C54003B48002B40F08A8006F0D1F80622102150
:104C6400374806F0CCF806221121354806F0C0F882
:104C740006221221324806F0C2F8062213213048D7
:104C840006F0BDF823782B702CE0334F3B787BBBC8
:104C9400344E062233780F21DFF8B8B0DFF8BCA019
:104CA400DFF8BC90DFF8C080254833B306F0A0F8E5
:104CB40006221021224806F0A2F8062211212048DB
:104CC40006F096F8062212211D4806F098F80622EE
:104CD40013211B4806F08CF823782B709BF80030C6
:104CE4008AF800303B7889F80030337888F800304F
:104CF400134806F03DF9FEF70EBB06F080F80622D5
:104D040010210F4806F074F8062211210C4806F011
:104D140076F8062212210A4806F06AF806221321C0
:104D2400074806F06CF8D7E79E0400200005002031
:104D3400FD04002098040020620400206804002080
:104D440080050020970400209D04002061040020B9
:104D5400670400208A0400209004002054040020EA
:104D64005A040020FF040020FC04002006F040F850
:104D740006221021AF4806F03BF806221121AD4867
:104D840006F036F806221221AA4806F031F8062267
:104D94001321A84806F02CF874E7002A00F08E834B
:104DA400A54F3B781BBBA54E062233781721DFF8AD
:104DB4009092DFF890829F48002B67D106F01FF88D
:104DC400062218219B4806F01AF806221921994850
:104DD40006F00EF806221A21964806F010F806226C
:104DE4001B21944806F00BF823782B702CE0934F8A
:104DF4003B787BBB944E062233781721DFF84C8234
:104E0400DFF834B2DFF838A2DFF83892894833B3D8
:104E140005F0EEFF06221821864805F0F0FF062271
:104E24001921844805F0E4FF06221A21814805F07F
:104E3400E6FF06221B217F4805F0DAFF23782B705A
:104E44009BF800308AF800303B7889F800303378DA
:104E540088F80030774806F08BF8FEF779BA05F049
:104E6400CEFF06221821734805F0C2FF062219213D
:104E7400704805F0C4FF06221A216E4805F0B8FFF9
:104E840006221B216B4805F0BAFFD7E705F0B0FFF7
:104E940006221821674805F0ABFF06221921654850
:104EA40005F0A6FF06221A21624805F0A1FF06229A
:104EB4001B21604805F09CFF96E7002A00F0DF8282
:104EC400634F3B781BBB634E062233781E21DFF809
:104ED4008891DFF888815748002B67D105F08FFF50
:104EE40006221F21534805F08AFF0622202151483B
:104EF40005F07EFF062221214E4805F080FF0622A0
:104F040022214C4805F07BFF23782B702CE0514F75
:104F14003B787BBB4C4E062233781E21DFF82C8174
:104F2400DFF82CB1DFF830A1DFF83091414833B31A
:104F340005F05EFF06221F213E4805F060FF0622B1
:104F440020213C4805F054FF06222121394805F070
:104F540056FF06222221374805F04AFF23782B709A
:104F64009BF800308AF800303B7889F800303378B9
:104F740088F800302F4805F0FBFFFEF706BA05F06D
:104F84003EFF06221F212B4805F032FF0622202176
:104F9400284805F034FF06222121264805F028FF81
:104FA40006222221234805F02AFFD7E705F020FF37
:104FB40006221F211F4805F01BFF062220211D4841
:104FC40005F016FF062221211A4805F011FF0622DA
:104FD4002221184805F00CFF96E7002A00F03082E1
:104FE4001F4F3B78002B43D11E4E062233782521D8
:104FF400DFF87490DFF874800E48002B40F087804F
:1050040005F0FDFE062226210A4805F0F8FE0622D8
:105014002721084805F0ECFE06222821054805F062
:10502400EEFE06222921034805F0E9FE23782B70C1
:105034004BE000BF80050020890400208F0400207D
:105044005304002059040020FF040020FC04002025
:10505400880400208E0400205204002058040020FC
:10506400870400208D0400205104002057040020F0
:10507400B84F3B787BBBB84E062233782521DFF846
:10508400DC82DFF8DCB2DFF8DCA2DFF8DC92B748C0
:1050940033B305F0ADFE06222621B44805F0AFFE79
:1050A40006222721B14805F0A3FE06222821AF4895
:1050B40005F0A5FE06222921AC4805F099FE2378C7
:1050C4002B709BF800308AF800303B7889F8003068
:1050D400337888F80030A54805F04AFFFEF772B926
:1050E40005F08DFE06222621A04805F081FE062249
:1050F40027219E4805F083FE062228219B4805F0BF
:1051040077FE06222921994805F079FED7E705F0B4
:105114006FFE06222621954805F06AFE0622272105
:10512400924805F065FE06222821904805F060FEAD
:10513400062229218D4805F05BFE77E7002A00F05E
:1051440060818B4F3B781BBB8A4E062233782B2120
:10515400DFF82492DFF824828448002B67D105F01D
:105164004EFE06222C21814805F049FE06222D21FF
:105174007E4805F03DFE06222E217C4805F03FFEC8
:1051840006222F21794805F03AFE23782B702CE073
:10519400784F3B787BBB704E062233782B21DFF8A7
:1051A400BC81DFF8CCB1DFF8D0A1DFF8D0916F4833
:1051B40033B305F01DFE06222C216C4805F01FFEBA
:1051C40006222D21694805F013FE06222E21674888
:1051D40005F015FE06222F21644805F009FE237808
:1051E4002B709BF800308AF800303B7889F8003047
:1051F400337888F800305D4805F0BAFEFEF7FFB852
:1052040005F0FDFD06222C21584805F0F1FD06228B
:105214002D21564805F0F3FD06222E21534805F0B2
:10522400E7FD06222F21514805F0E9FDD7E705F0F7
:10523400DFFD06222C214D4805F0DAFD06222D2142
:105244004A4805F0D5FD06222E21484805F0D0FD38
:1052540006222F21454805F0CBFD96E7002A00F0F1
:10526400B180474F3B7823BB464E06223378322128
:10527400DFF81491DFF814813C48002B40F088805B
:1052840005F0BDFD06223321384805F0B8FD06229D
:105294003421364805F0ACFD06223521334805F0AB
:1052A400AEFD06223621314805F0A9FD23782B7086
:1052B4002CE0344F3B787BBB274E062233783221D7
:1052C400DFF89880DFF8B8B0DFF8BCA0DFF8BC9056
:1052D40026483BB305F08CFD06223321234805F014
:1052E4008EFD06223421214805F082FD0622352157
:1052F4001E4805F084FD062236211C4805F078FD81
:1053040023782B709BF800308AF800303B7889F8BA
:105314000030337888F80030144809B0BDE8F04F05
:1053240005F026BE05F06BFD062233210F4805F07B
:105334005FFD062234210D4805F061FD062235216A
:105344000A4805F055FD06223621084805F057FDA8
:10535400D6E700BF8D040020FF040020FC040020D9
:1053640087040020510400205704002080050020F9
:10537400860400208C0400205004002056040020E1
:10538400850400208B0400204F04002055040020D5
:1053940005F02EFD06223321C64805F029FD06221C
:1053A4003421C44805F024FD06223521C14805F006
:1053B4001FFD06223621BF4805F01AFD76E7002BB3
:1053C4007FF477AF06223221BA4805F018FD062291
:1053D4003321B84805F013FD06223421B54805F001
:1053E4000EFD06223521B34805F009FD06223621BB
:1053F400B04805F004FD23782B708DE7002B7FF473
:10540400C7AE06222B21AB4805F0F9FC06222C215D
:10541400A84805F0F4FC06222D21A64805F0EFFC6F
:1054240006222E21A34805F0EAFC06222F21A148DA
:1054340005F0E5FC23782B70DDE6002B7FF418AE35
:10544400062225219B4805F0DAFC062226219948EC
:1054540005F0D5FC06222721964805F0D0FC06224B
:105464002821944805F0CBFC06222921914805F017
:10547400C6FC23782B702EE6002B7FF448AD062261
:105484001E218C4805F0BBFC06221F21894805F02B
:10549400B6FC06222021874805F0B1FC0622212112
:1054A400844805F0ACFC06222221824805F0A7FCC2
:1054B40023782B705EE5002B7FF499AC062217212C
:1054C4007C4805F09CFC062218217A4805F097FCDC
:1054D40006221921774805F092FC06221A21754804
:1054E40005F08DFC06221B21724805F088FC237808
:1054F4002B70AFE4002B7FF4C8AB06220F216D485C
:1055040005F07DFC062210216A4805F078FC06228D
:105514001121684805F073FC06221221654805F044
:105524006EFC06221321634805F069FC23782B7076
:10553400FFF7DEBB002B7FF417AB032232215D485B
:1055440005F05DFC032233215A4805F058FC032280
:105554003421584805F053FC03223521554805F001
:105564004EFC03223621534805F049FC23782B7066
:10557400FFF72DBB002B7FF467AA03222B214D4894
:1055840005F03DFC03222C214A4805F038FC032297
:105594002D21484805F033FC03222E21454805F00F
:1055A4002EFC03222F21434805F029FC23782B707D
:1055B400FFF77DBA002B7FF496A9032225213D48ED
:1055C40005F01DFC032226213A4805F018FC0322AD
:1055D4002721384805F013FC03222821354805F01B
:1055E4000EFC03222921334805F009FC23782B7093
:1055F400FFF7ACB9002B7FF4E6A803221E212D4847
:1056040005F0FDFB03221F212A4805F0F8FB0322C5
:105614002021284805F0F3FB03222121254805F029
:10562400EEFB03222221234805F0E9FB23782B70AB
:10563400FFF7FCB8002B7FF414A8032217211D48A0
:1056440005F0DDFB032218211A4805F0D8FB0322DC
:105654001921184805F0D3FB03221A21154805F037
:10566400CEFB03221B21134805F0C9FB23782B70C2
:10567400FFF72AB8002B7EF463AF03220F210D48F5
:1056840005F0BDFB032210210A4805F0B8FB0322F4
:105694001121084805F0B3FB03221221054805F047
:1056A400AEFB03221321034805F0A9FB23782B70DA
:1056B400FEF779BF80050020002B7EF4A9AE0022FE
:1056C40032216B4805F09BFB00223321684805F02A
:1056D40096FB00223421664805F091FB0022352117
:1056E400634805F08CFB00223621614805F087FBF6
:1056F40023782B70FEF7C1BE002B7EF4C5AD0022CB
:105704002B215B4805F07BFB00222C21584805F037
:1057140076FB00222D21564805F071FB00222E2134
:10572400534805F06CFB00222F21514805F067FB1C
:1057340023782B70FEF7DDBD002B7EF401AD002233
:1057440025214B4805F05BFB00222621484805F043
:1057540056FB00222721464805F051FB0022282150
:10576400434805F04CFB00222921414805F047FB42
:1057740023782B70FEF719BD002B7EF41EAC00229B
:105784001E213B4805F03BFB00221F21384805F051
:1057940036FB00222021364805F031FB002221216E
:1057A400334805F02CFB00222221314805F027FB69
:1057B40023782B70FEF736BC002B7EF459AB002205
:1057C40017212B4805F01BFB00221821284805F05F
:1057D40016FB00221921264805F011FB00221A218C
:1057E400234805F00CFB00221B21214805F007FB90
:1057F40023782B70FEF771BB32460F211C4805F04D
:10580400FEFA324610211A4805F0F2FA3246112106
:10581400174805F0F4FA32461221154805F0E8FA63
:1058240032461321124805F0EAFAFEF7C2BA002BF9
:105834007EF494AA00220F210D4805F0E0FA00221C
:1058440010210B4805F0DBFA00221121084805F06D
:10585400D6FA00221221064805F0D1FA00221321BB
:10586400034805F0CCFA23782B70FEF7E2B900BFA9
:1058740080050020F8B504460026124F5F2529460E
:10588400013532463846EDB205F0B9FA642DF6D149
:105894000136F6B2072EF1D15F250027094E013CEF
:1058A40014F8013F23B9BDE8F840064805F060BB91
:1058B4003582778221780348053509F00CFDADB2B5
:1058C400EEE700BF80050020F0B5CA2087B00AF0DB
:1058D40017F8994E994D3368994C9842286002D034
:1058E4000AF044F820600AF041F82368954CC01A85
:1058F400236898420FD9944A2B6811688B420AD0C6
:10590400136043B9914B1B68012B41F00582904908
:10591400904809F0FFFC2B6800213C20336009F01B
:10592400B5FF01200AF024F8302009F0E9FF8A4E7F
:105934008A4D33688A4F9842286002D00AF016F8DC
:1059440038600AF013F83B68C01A236898420BD9F0
:10595400844A2B6811688B4206D01360002B41F0F7
:10596400E8810122804B1A702B683120336009F0E2
:10597400C7FF7E4E7E4D33687E4F9842286002D02A
:1059840009F0F4FF386009F0F1FF3B68C01A23689E
:1059940098420CD9784A2B6811688B4207D013605F
:1059A4002BB9714B1B7813B10122744B1A702B68FD
:1059B4003320336009F0A4FF714E724D3368724F87
:1059C4009842286002D009F0D1FF386009F0CEFF78
:1059D4003B68C01A2368984205D96C4B2A68196839
:1059E4008A4218BF1A602B683420336009F088FF9C
:1059F400674E684D3368684F9842286002D009F0BA
:105A0400B5FF386009F0B2FF3B68C01A23689842BA
:105A140005D9624B2A6819688A4218BF1A602B6834
:105A24003520336009F06CFF5D4E5E4D33685E4F88
:105A34009842286002D009F099FF386009F096FF77
:105A44003B68C01A236898420BD9584A2B681168DE
:105A54008B4206D01360002B41F072810122544B1B
:105A64001A702B683620336009F04AFF514E524DAC
:105A74003368524F9842286002D009F077FF3860AB
:105A840009F074FF3B68C01A236898421DD94C4A38
:105A94002B6811688B4218D01360B3B94949684622
:105AA40009F026FD694603A809F043FD464B03A807
:105AB400196809F092FD0146264809F021FC03A863
:105AC40009F0D4FC684609F0D1FC2B683720336018
